:201E000012010002FFFFFF40501D8C600100010203010A060002FFFFFF400100090219009B
:151E200001010080320904000001FFFFFF00070582020002005C
:191E36000902190001010080320904000001FFFFFF0007058202400000E0
:201E5000040309040E0373006900670072006F006B0010036600780032006C006100660068
:201E700077001E0373006900670072006F006B002000460058003200200038006300680018
:021E9000000050
:040000000201B9320E
:01000B0032C2
:0100130032BA
:01001B0032B2
:0100230032AA
:03002B000204C10B
:01003300329A
:01003B003292
:01004300328A
:01004B003282
:01005300327A
:01005B003272
:01006300326A
:03006B00020399F4
:030073000210B5C3
:03007B00020978FF
:030083000210B2B6
:03008B0002042B41
:03009300020476EE
:03009B00020975E2
:0300A3000211083F
:0300AB0002110936
:0300B30002110A2D
:0300BB0002110D22
:0300C3000210B474
:0300CB000210D14F
:0300D3000210D246
:0300DB000210D43C
:0300E3000203B164
:0300EB000211C03F
:0300F30002097689
:0300FB0002097780
:03010300020CC526
:03010B00020CC61D
:03011300020CC714
:03011B0002116B63
:03012300021106C0
:03012B0002110BB3
:0301330002110EA8
:03013B000211109E
:030143000211079F
:03014B0002110C92
:0301530002110F87
:03015B000211117D
:0301630002116A1C
:03016B000210D5AA
:0301730002110076
:03017B000211026C
:0301830002110462
:03018B000210FF60
:0301930002110155
:03019B000211034B
:0301A30002110541
:0301AB000210D36C
:0301B3000210B384
:05021200E4F509F50A06
:03022C000201B616
:0301B6000205AF90
:20022F0090E61274E8F00000000090E611E053E07FF00000000090E610E053E07FF00000CA
:20024F00000090E613E053E07FF00000000090E614E053E07FF00000000090E615E053E0DA
:20026F007FF00000000090E6047480F00000000090E6047402F00000000090E604E4F00074
:20028F0000000090E6187408F00000000090E6207402F00000000090E621E4F000000000EE
:2002AF0090E6D27402F0000000002290E7407401F090E74175F00074041210B690E68AE4F2
:2002CF00F00000000090E68B7402F0000000002290E60AE0FF90E740F090E68AE4F00000BC
:2002EF00000090E68B7401F00000000022AF82BFB0028019BFB1028005BFB21F80168F0878
:20030F0090E68BE4F000000000758201221202BA758201221202DF7582012275820022E5EC
:20032F0082600475820022AD22AE23AF248D828E838FF0E41210B675820122E582FF7004ED
:20034F00E52260047582002290E6837412F0E043E020F090E6047480F00000000090E604B0
:20036F007402F00000000090E604E4F0000000007582012275820122AF82BF01067E017F91
:20038F000080047E007F008E8222C0E0C082C083D2005391EF90E65D7401F0D083D082D024
:2003AF00E032C021C0E0C0F0C082C083C007C006C005C004C003C002C001C000C0D075D075
:2003CF000090E658E0FFE4F05391EF90E659E030E2147401B50B0F750901750A00C281C0A0
:2003EF0007120927D00790E65974FFF090E65B7401F00000000090E658EFF000000000D0E9
:20040F00D0D000D001D002D003D004D005D006D007D083D082D0F0D0E0D02132C021C0E0A8
:20042F00C0F0C082C083C007C006C005C004C003C002C001C000C0D075D000758200120F6F
:20044F00AE5391EF90E65D7410F0D0D0D000D001D002D003D004D005D006D007D083D082E4
:20046F00D0F0D0E0D02132C021C0E0C0F0C082C083C007C006C005C004C003C002C001C008
:20048F0000C0D075D000758201120FAE5391EF90E65D7420F0D0D0D000D001D002D003D0D1
:2004AF0004D005D006D007D083D082D0F0D0E0D02132C0E0C007C006C0D075D0007402B542
:2004CF000B1CE50924FFFEE50A34FFFF8E098F0AEE4F7010B2817509E8750A038006E50B38
:2004EF007002D281C2CFD0D0D006D007D0E03290E60B7403F0C20075080090E680E043E048
:20050F000AF09005DC12111290E680E053E0F7F090E600E054E74410F0E500D2E890E668EA
:20052F00E043E008F090E65CE043E001F090E65AE043E001F090E658E043E004F090E65C90
:20054F00E043E020F090E65CE043E010F090E670E4F075B202D28175CA0C75CBFE75C800A8
:20056F00D2ADD2CAD2AF12022F020643300005120CC8C200E508602574B1B5081D90E6A0DE
:20058F00E020E11990E68BE0FFBF030990E74075F0001207047508008003750800020937AF
:0805AF001204FE12057B80FB23
:03021700750B0064
:2005B70075AF03759AE4759B007E007F0090E67BE4F00EBE00010FC3EE9480EF64809480B0
:2005D70040EB2290E6F3E4F090E6C3F090E6C1F090E6C2F090E6C074E4F090E6F4E4F090B6
:2005F700E6D3F02290E67174FFF0F5B490E672E043E080F043B6800000000090E6C5E4F043
:200617000000000090E6C4E4F02290E6C6E4F090E6C7F090E6C8F090E6C9F090E6CAF09039
:20063700E6CBF090E6CCF090E6CDF02290E60174EEF090E6F574FFF01205DA1205B712050E
:20065700FB120621750B002285822485832585F026AD24AE25AF268D828E838FF0E5221289
:2006770010B674082DFAE43EFB8F048A828B838CF0E41210B674102DFAE43EFB8F048A8291
:200697008B838CF0E5231210B674182DFDE43EFE8D828E838FF0E40210B685822285832364
:2006B70085F024AD22AE23AF248D828E838FF074B81210B674082DFAE43EFB8F048A828B8A
:2006D700838CF074031210B674102DFAE43EFB8F048A828B838CF0E41210B674182DFDE46E
:2006F7003EFE8D828E838FF074360210B685820C85830D85F00EE5BB30E7FB850C82850D94
:2007170083850EF012116CFC30E50890E6187409F0800690E6187408F000000000850C8286
:20073700850D83850EF012116C30E60890E60174EEF0800690E60174AEF07401250CFAE401
:20075700350DFBAC0E8A828B838CF012116CF9B90600400475820022850C82850D83850E96
:20077700F012116CF820E40302086C7402250CF8E4350DFEAF0E88828E838FF012116CF5D0
:2007970014E9607279007DE4E4FEF50FF5108A828B838CF012116CF87F00C3E50F98E510CE
:2007B70064808FF063F08095F04003020843C002C003C00489008D048E0709B900010D759A
:2007D700220075230688828C838FF0C006C005C004C003C002C00112065FD001D002D00328
:2007F700D004D005D006050FE4B50F020510D004D003D0028098A8147F007522028F2388F1
:20081700828F83121188A882E514C398F51474012400F511E434E4F512751300882275238F
:200837000690E40075F00012065F800689118D128E13AD11AE12AF1374012DF511E43EF5EC
:20085700128F138514227523008D828E838FF012065F0209117D007EE4E4FFF50FF5108AF3
:20087700828B838CF012116CF87900C3E50F98E510648089F063F08095F05048C002C0033F
:20089700C0048D008E018F040DBD00010E752200752300888289838CF0C007C006C005C022
:2008B70004C003C00212065FD002D003D004D005D006D007050FE4B50F020510D004D003AC
:2008D700D002809B8D118E128F137402250CFAE4350DFBAC0E8A828B838CF012116CFC6037
:2008F7001974012DF511E43EF5128F138C227523008D828E838FF012065FAD11AE12AF13B9
:200917008D828E838FF01206B1750B0175820122900001120B9B758200120CAE750B02220D
:200937007402B50B38E5BB30E73390E6047480F00000000090E618E4F00000000090E6040E
:1E0957007402F00000000090E6187408F00000000090E604E4F000000000750B002232
:01097500324F
:01097600324E
:01097700324D
:01097800324C
:2009790085822585832685F02790E601E053E0FCF090E601E043E002F090E6F574FFF0AA0E
:2009990022AB23AC248A828B838CF012116C90E6F3F074012AF8E43BF98C07888289838F19
:2009B900F012116CF890E6C3F074022AFDE43BFE8C078D828E838FF012116C90E6C1F07468
:2009D900032AFDE43BFE8C078D828E838FF012116C90E6C2F074052AFDE43BFE8C078D826F
:2009F9008E838FF012116C90E6C0F074062AFAE43BFB8A828B838CF012116CFA90E6F4F068
:200A190075AF07AD25AE268E9A85259B759DE4759E007F0090E67BE090E67CF00FBF8000F6
:200A390040F290E67174FFF0F5B490E672E043E080F043B6800000000090E6C4E4F0000096
:200A5900000090E6C5E4F090E6C6F090E6C7F090E6C8F090E6C9F090E6CAF090E6CBF090C7
:200A7900E6CCF090E6CDF022AD82AE83AFF0E52275F009A4FC2DF9E43EFA8F0389828A8366
:200A99008BF012116C90E6C6F07B0074012CF9E43BFAE92DF9EA3EF88F02898288838AF089
:200AB90012116C90E6C7F074022CF9E43BFAE92DF9EA3EF88F02898288838AF012116C903E
:200AD900E6C8F074032CF9E43BFAE92DF9EA3EF88F02898288838AF012116C90E6C9F07428
:200AF900042CF9E43BFAE92DF9EA3EF88F02898288838AF012116C90E6CAF074052CF9E40A
:200B19003BFAE92DF9EA3EF88F02898288838AF012116C90E6CBF074062CF9E43BFAE92DA9
:200B3900F9EA3EF88F02898288838AF012116C90E6CCF074072CFCE43BFBEC2DFDEB3EFEA7
:200B59008D828E838FF012116C90E6CDF022AC82AD83AEF0FF8E028F038A008B0190E6CE82
:200B7900E9F00000000090E6CFEAF0000000008C028D0390E6D0EBF00000000090E6D1ECF2
:200B9900F022AE82AF8390E6D0EFF00000000090E6D1EEF02285822485832585F026E5BBC9
:200BB90030E7FB90E6F1E0FC7B008524828525838526F0EC1210B6A3EB1210B6E52224FF05
:200BD900FBE52334FFFC7A008A007900C3E89522E99523506EE5BB30E7FBEA75F002A425C0
:200BF90024F8E52535F0F9AF26AEBD7D00888289838FF0ED1210B6A3EE1210B688278928B8
:200C19008F29888289838FF012116CFEA312116CFF8A017D00E9B50308EDB50404ADBF8069
:200C390002ADBE8D017D00E94206ED42078527828528838529F0EE1210B6A3EF1210B60A86
:200C5900020BE12285822485832585F0267C008C027B00C3EA9522EB95235038E5BB30E7AD
:200C7900FBEC75F002A42524F9E52535F0FAAB2689828A838BF012116CF8A312116CFF9052
:200C9900E6F0F089828A838BF012116CF990E6F1F00C80BB22AF82E5BB30E7FB74044FF5FB
:0C0CB900BB22AF82E5BB30E7FB8FBB2203
:010CC50032FC
:010CC60032FB
:010CC70032FA
:0601E800E478FFF6D8FDEB
:12021A0075160075170075183675191E751A1C751B1EF3
:200CC80090E6B9E0FF24F45003020DBEEF240A83F582EF241083F583E473FA0FBE24BEBED3
:200CE80039BE3F566DA00C0D0D0D0D0D0D0D0D0D0D0D120E34E5826003020DD390E6A0E0C2
:200D080043E001F0020DD3120EC8E5826003020DD390E6A0E043E001F0020DD3120F16E539
:200D2800826003020DD390E6A0E043E001F0020DD3120FD9020DD3120383AF8290E740EFAD
:200D4800F090E68AE4F090E68B04F0020DD390E6BAE0F582120387E582707090E6A0E0434D
:200D6800E001F0806690E6BCE0FF7522157523007524408F8212032EE582700A90E6A0E05B
:200D880043E001F0804590E740E515F090E68AE4F090E68B04F0803390E6BCE0FF90E6BA14
:200DA800E0F5228F8212034AE582701F90E6A0E043E001F0801590E6B9E0F5821202FCE5B4
:200DC80082700890E6A0E043E001F090E6A0E043E080F022AF82747F5FFE24F75003020E5D
:200DE80030EE240A83F582EE240D83F583E473090D2030243028302C0E0E0E0E0E0E0E0E86
:200E08000E90E6A022EF30E7067EA27FE680047EA17FE68E828F832290E6A32290E6A42230
:200E280090E6A52290E6A6229000002290E6B8E0FFBF80028022BF81028008BF82028037C9
:200E4800020EC090E740E4F090E741F090E68AF090E68B7402F08064E51725E0FFE516420F
:200E68000790E740EFF090E741E4F090E68AF090E68B7402F0804590E6BCE0F582120DDCA1
:200E8800AE82AF838E048F05EE4F7003F582228C828D83E0FC30E0067E017F0080047E0069
:200EA8007F0090E740EEF090E741E4F090E68AF090E68B7402F0800475820022758201227C
:200EC80090E6B8E0FF6005BF0237801190E6BAE0FFBF010575170080317582002290E6BAB5
:200EE800E0701A90E6BCE0F582120DDCAE82AF83E0FD5305FE8E828F83EDF0800D758200E4
:200F08002290E6B9E0F5820202FC7582012290E6B8E0FF6008BF02028020020FA190E6BA4D
:200F2800E0FFBF0203020FAA90E6BAE0FFBF0106751701020FAA7582002290E6BAE0705540
:200F480090E6BCE0F582120DDCAE82AF83EE4F7003F582228E828F83E0FD4305018E828F73
:200F680083EDF090E6BCE0FF53070F90E6BCE0FE530680E4C423CEC423541F6ECE541FCE36
:200F88006ECE30E40244E0FD90E683EE2FF0E043E020F0800D7582002290E6B9E0F582028F
:200FA80002FC75820122AF827E0110AF027E00EF600E75181C75191E751A36751B1E800C71
:200FC80075183675191E751A1C751B1EEE1392AF2290E6BBE0FFBF01028019BF020280240B
:200FE800BF0302802CBF060302108CBF070302109C0210A97E007F1E90E6B3EFF090E6B494
:201008007400F02290E6B3E519F090E6B4E518F0227D507E1E7F8090E6BAE0F5227B00EBFD
:20102800B5220280430B8D008E018F028D828E838FF012116C28F8E439F9880589068A0743
:2010480074012DF9E43EFA8F0489828A838CF012116CF9B9030280067D007E007F00ED4E29
:201068006006C3E5229B50B7ED4E600F8D038E0490E6B3ECF090E6B4EDF02290E6A0E04363
:20108800E001F0227E127F1E90E6B3EFF090E6B47412F02290E6B3E51BF090E6B4E51AF02C
:0A10A8002290E6A0E043E001F022F0
:2001C6007900E94400601B7A009011C5780075921CE493F2A308B800020592D9F4DAF2750A
:0201E60092FF86
:0110B200320B
:0110B300320A
:0110B4003209
:0110B5003208
:1B10B60020F71130F6138883A88220F509F6A8837583002280FEF280F5F02239
:0110D10032EC
:0110D20032EB
:0110D30032EA
:0110D40032E9
:03004300021F0099
:201F0000020399000210B500020978000210B20002042B00020476000209750002110700CE
:201F2000021108000211090002110A0002110D000210B4000210D1000210D2000210D400BA
:201F40000203B100021107000211C0000209760002097700020CC500020CC600020CC7005F
:201F600002116B000211070002110700021107000211060002110B0002110E00021110001A
:201F800002110C0002110F000211110002116A000210D50002110000021102000211040039
:181FA0000210FF000211010002110300021105000210D3000210B3002C
:0110D50032E8
:2010D6007A10E4FBFCE58225E0F582E58333F583EB33FBEC33FCEB9522F5F0EC95234006FA
:0910F600FCABF0438201DADD22BB
:0110FF0032BE
:2001EE007800E84400600A790075921CE4F309D8FC7800E84400600C7900901C00E4F0A3E7
:04020E00D8FCD9FA45
:0111000032BC
:0111010032BB
:0111020032BA
:0111030032B9
:0111040032B8
:0111050032B7
:0111060032B6
:0111070032B5
:0111080032B4
:0111090032B3
:01110A0032B2
:01110B0032B1
:01110C0032B0
:01110D0032AF
:01110E0032AE
:01110F0032AD
:0111100032AC
:0111110032AB
:20111200AE82AF8390E600E05418C423541F70057CB1FD801C90E600E05418C423541FFBED
:20113200BB01067A617B0180047AC27B028A048B058C228D23E52224FFFAE52334FFFB8AE7
:18115200228B23EA4B70EEEE24FFFAEF34FFFB8A068B07EA4B70DA2237
:01116A003252
:01116B003251
:0D01B9007581291211C1E58260030201B6B3
:1C116C0020F71430F6148883A88220F507E6A88375830022E280F7E49322E02292
:20118800C2D5E58330E70DD2D5E4C39582F582E49583F583E52330E70DB2D5E4C39522F5CE
:1811A80022E49523F5231210D630D50BE4C39582F582E49583F5832286
:0111C00032FC
:0411C1007582002211
:00000001FF
